{
  "contractName": "Factory",
  "abi": [
    {
      "constant": true,
      "inputs": [],
      "name": "delegates",
      "outputs": [
        {
          "internalType": "contract Delegates",
          "name": "",
          "type": "address"
        }
      ],
      "payable": false,
      "stateMutability": "view",
      "type": "function"
    },
    {
      "constant": false,
      "inputs": [],
      "name": "renounceOwnership",
      "outputs": [],
      "payable": false,
      "stateMutability": "nonpayable",
      "type": "function"
    },
    {
      "constant": true,
      "inputs": [],
      "name": "owner",
      "outputs": [
        {
          "internalType": "address",
          "name": "",
          "type": "address"
        }
      ],
      "payable": false,
      "stateMutability": "view",
      "type": "function"
    },
    {
      "constant": true,
      "inputs": [],
      "name": "isOwner",
      "outputs": [
        {
          "internalType": "bool",
          "name": "",
          "type": "bool"
        }
      ],
      "payable": false,
      "stateMutability": "view",
      "type": "function"
    },
    {
      "constant": true,
      "inputs": [],
      "name": "bytecode",
      "outputs": [
        {
          "internalType": "bytes",
          "name": "",
          "type": "bytes"
        }
      ],
      "payable": false,
      "stateMutability": "view",
      "type": "function"
    },
    {
      "constant": false,
      "inputs": [
        {
          "internalType": "address",
          "name": "newOwner",
          "type": "address"
        }
      ],
      "name": "transferOwnership",
      "outputs": [],
      "payable": false,
      "stateMutability": "nonpayable",
      "type": "function"
    },
    {
      "constant": true,
      "inputs": [],
      "name": "modules",
      "outputs": [
        {
          "internalType": "contract LimitedModules",
          "name": "",
          "type": "address"
        }
      ],
      "payable": false,
      "stateMutability": "view",
      "type": "function"
    },
    {
      "constant": true,
      "inputs": [],
      "name": "multiLimiter",
      "outputs": [
        {
          "internalType": "contract MultiLimiter",
          "name": "",
          "type": "address"
        }
      ],
      "payable": false,
      "stateMutability": "view",
      "type": "function"
    },
    {
      "inputs": [
        {
          "internalType": "contract LimitedModules",
          "name": "_modules",
          "type": "address"
        },
        {
          "internalType": "contract Delegates",
          "name": "_delegates",
          "type": "address"
        },
        {
          "internalType": "contract MultiLimiter",
          "name": "_multiLimiter",
          "type": "address"
        },
        {
          "internalType": "bytes",
          "name": "_bytecode",
          "type": "bytes"
        }
      ],
      "payable": false,
      "stateMutability": "nonpayable",
      "type": "constructor"
    },
    {
      "anonymous": false,
      "inputs": [
        {
          "indexed": true,
          "internalType": "address",
          "name": "wallet",
          "type": "address"
        },
        {
          "indexed": true,
          "internalType": "address",
          "name": "owner",
          "type": "address"
        }
      ],
      "name": "WalletCreated",
      "type": "event"
    },
    {
      "anonymous": false,
      "inputs": [
        {
          "indexed": true,
          "internalType": "address",
          "name": "previousOwner",
          "type": "address"
        },
        {
          "indexed": true,
          "internalType": "address",
          "name": "newOwner",
          "type": "address"
        }
      ],
      "name": "OwnershipTransferred",
      "type": "event"
    },
    {
      "constant": false,
      "inputs": [
        {
          "internalType": "address",
          "name": "_owner",
          "type": "address"
        },
        {
          "internalType": "address[]",
          "name": "_modules",
          "type": "address[]"
        },
        {
          "internalType": "contract Limiter[]",
          "name": "_limiters",
          "type": "address[]"
        }
      ],
      "name": "createProxyWallet",
      "outputs": [
        {
          "internalType": "address payable",
          "name": "proxy",
          "type": "address"
        }
      ],
      "payable": false,
      "stateMutability": "nonpayable",
      "type": "function"
    }
  ],
  "bytecode": "0x608060405234801561001057600080fd5b50604051610c4c380380610c4c8339818101604052608081101561003357600080fd5b81516020830151604080850151606086018051925194969395919493918201928464010000000082111561006657600080fd5b90830190602082018581111561007b57600080fd5b825164010000000081118282018810171561009557600080fd5b82525081516020918201929091019080838360005b838110156100c25781810151838201526020016100aa565b50505050905090810190601f1680156100ef5780820380516001836020036101000a031916815260200191505b50604052506101089150506001600160e01b036101aa16565b600080546001600160a01b0319166001600160a01b03928316178082556040519216917f8be0079c531659141344cd1fd0a4f28419497f9722a3daafe3b4186f6b6457e0908290a3600180546001600160a01b038087166001600160a01b03199283161790925560028054868416908316179055600380549285169290911691909117905580516101a09060049060208401906101af565b5050505050610247565b335b90565b828054600181600116156101000203166002900490600052602060002090601f016020900481019282601f106101f057805160ff191683800117855561021d565b8280016001018555821561021d579182015b8281111561021d578251825591602001919060010190610202565b5061022992915061022d565b5090565b6101ac91905b808211156102295760008155600101610233565b6109f6806102566000396000f3fe608060405234801561001057600080fd5b50600436106100935760003560e01c8063996b0c7611610066578063996b0c76146100ea578063f094000214610221578063f2fde38b1461029e578063f7e80e98146102c4578063fe34b579146102cc57610093565b80636138b19e14610098578063715018a6146100bc5780638da5cb5b146100c65780638f32d59b146100ce575b600080fd5b6100a06102d4565b604080516001600160a01b039092168252519081900360200190f35b6100c46102e3565b005b6100a0610386565b6100d6610395565b604080519115158252519081900360200190f35b6100a06004803603606081101561010057600080fd5b6001600160a01b03823516919081019060408101602082013564010000000081111561012b57600080fd5b82018360208201111561013d57600080fd5b8035906020019184602083028401116401000000008311171561015f57600080fd5b91908080602002602001604051908101604052809392919081815260200183836020028082843760009201919091525092959493602081019350359150506401000000008111156101af57600080fd5b8201836020820111156101c157600080fd5b803590602001918460208302840111640100000000831117156101e357600080fd5b9190808060200260200160405190810160405280939291908181526020018383602002808284376000920191909152509295506103b9945050505050565b6102296107e6565b6040805160208082528351818301528351919283929083019185019080838360005b8381101561026357818101518382015260200161024b565b50505050905090810190601f1680156102905780820380516001836020036101000a031916815260200191505b509250505060405180910390f35b6100c4600480360360208110156102b457600080fd5b50356001600160a01b0316610874565b6100a06108d9565b6100a06108e8565b6002546001600160a01b031681565b6102eb610395565b61033c576040805162461bcd60e51b815260206004820181905260248201527f4f776e61626c653a2063616c6c6572206973206e6f7420746865206f776e6572604482015290519081900360640190fd5b600080546040516001600160a01b03909116907f8be0079c531659141344cd1fd0a4f28419497f9722a3daafe3b4186f6b6457e0908390a3600080546001600160a01b0319169055565b6000546001600160a01b031690565b600080546001600160a01b03166103aa6108f7565b6001600160a01b031614905090565b60006001600160a01b03841661040f576040805162461bcd60e51b81526020600482015260166024820152751bdddb995c881b5d5cdd081b9bdd081899481b9d5b1b60521b604482015290519081900360640190fd5b6040805133606090811b60208084019190915287821b6bffffffffffffffffffffffff1916603484015230821b60488401528351808403603c018152605c84018086528151918301919091206004805460026001821615610100026000190190911604601f81018590049094028601607c90810190975283835290959394919390929101828280156104e25780601f106104b7576101008083540402835291602001916104e2565b820191906000526020600020905b8154815290600101906020018083116104c557829003601f168201915b50505050509050818151602083016000f59250823b61050057600080fd5b6002546001546040805163184b955960e01b81526001600160a01b038a811660048301529384166024820152918316604483015251859283169163184b955991606480830192600092919082900301818387803b15801561056057600080fd5b505af1158015610574573d6000803e3d6000fd5b5050600154600354604051636082bc9b60e01b81526001600160a01b0386811660048301908152928116604483018190526060602484019081528d5160648501528d51929095169650636082bc9b955087948d94919391929091608401906020808701910280838360005b838110156105f75781810151838201526020016105df565b50505050905001945050505050600060405180830381600087803b15801561061e57600080fd5b505af1158015610632573d6000803e3d6000fd5b505060035460408051631e2d1e7560e11b81526001600160a01b0386811660048301908152602483019384528b5160448401528b51919094169550633c5a3cea945086938b93909290916064909101906020808601910280838360005b838110156106a757818101518382015260200161068f565b505050509050019350505050600060405180830381600087803b1580156106cd57600080fd5b505af11580156106e1573d6000803e3d6000fd5b50506040516001600160a01b03808b169350871691507f5b03bfed1c14a02bdeceb5fa582eb1a5765fc0bc64ca0e6af4c20afc9487f08190600090a3866001600160a01b0316816001600160a01b0316638da5cb5b6040518163ffffffff1660e01b815260040160206040518083038186803b15801561076057600080fd5b505afa158015610774573d6000803e3d6000fd5b505050506040513d602081101561078a57600080fd5b50516001600160a01b0316146107dc576040805162461bcd60e51b81526020600482015260126024820152713bb937b733903bb0b63632ba1037bbb732b960711b604482015290519081900360640190fd5b5050509392505050565b6004805460408051602060026001851615610100026000190190941693909304601f8101849004840282018401909252818152929183018282801561086c5780601f106108415761010080835404028352916020019161086c565b820191906000526020600020905b81548152906001019060200180831161084f57829003601f168201915b505050505081565b61087c610395565b6108cd576040805162461bcd60e51b815260206004820181905260248201527f4f776e61626c653a2063616c6c6572206973206e6f7420746865206f776e6572604482015290519081900360640190fd5b6108d6816108fb565b50565b6001546001600160a01b031681565b6003546001600160a01b031681565b3390565b6001600160a01b0381166109405760405162461bcd60e51b815260040180806020018281038252602681526020018061099c6026913960400191505060405180910390fd5b600080546040516001600160a01b03808516939216917f8be0079c531659141344cd1fd0a4f28419497f9722a3daafe3b4186f6b6457e091a3600080546001600160a01b0319166001600160a01b039290921691909117905556fe4f776e61626c653a206e6577206f776e657220697320746865207a65726f2061646472657373a265627a7a723158202acf1f58f2459f7a4272256d334e62527d74843b6077a594be7e564a1824ad5a64736f6c634300050b0032",
  "source": "pragma solidity ^0.5.8;\n\nimport \"@openzeppelin/contracts/ownership/Ownable.sol\";\n\nimport \"./Proxy.sol\";\nimport \"./Wallet.sol\";\nimport \"./modules/LimitedModules.sol\";\nimport \"./limiters/MultiLimiter.sol\";\n\ncontract Factory is Ownable {\n\n    LimitedModules public modules;\n    Delegates public delegates;\n    MultiLimiter public multiLimiter;\n    bytes public bytecode;\n\n    event WalletCreated(\n        address indexed wallet,\n        address indexed owner\n    );\n\n    constructor(\n        LimitedModules _modules,\n        Delegates _delegates,\n        MultiLimiter _multiLimiter,\n        bytes memory _bytecode\n    )\n        public\n    {\n        modules = _modules;\n        delegates = _delegates;\n        multiLimiter = _multiLimiter;\n        bytecode = _bytecode;\n    }\n\n    // TODO: limit who can call this function\n    function createProxyWallet(\n        address _owner,\n        address[] memory _modules,\n        Limiter[] memory _limiters\n    )\n        public\n        returns (address payable proxy)\n    {\n        require(_owner != address(0), \"owner must not be null\");\n        bytes32 salt = keccak256(abi.encodePacked(msg.sender, _owner, address(this)));\n        bytes memory _code = bytecode;\n\n        // solium-disable-next-line security/no-inline-assembly\n        assembly {\n            proxy := create2(0, add(_code, 0x20), mload(_code), salt)\n            if iszero(extcodesize(proxy)) {\n                revert(0, 0)\n            }\n        }\n\n        Wallet wallet = Wallet(proxy);\n\n        wallet.init(_owner, delegates, modules);\n        modules.init(wallet, _modules, multiLimiter);\n        multiLimiter.init(wallet, _limiters);\n\n        emit WalletCreated(proxy, _owner);\n        require(wallet.owner() == _owner, \"wrong wallet owner\");\n\n    }\n}\n",
  "sourcePath": "/Users/kerman/immutable/gods-unchained-contracts/packages/contracts/contracts/wallet/Factory.sol",
  "compiler": {
    "name": "solc",
    "version": "0.5.11+commit.c082d0b4.Emscripten.clang"
  },
  "schemaVersion": "3.0.16",
  "updatedAt": "2019-11-08T05:02:33.504Z",
  "devdoc": {
    "methods": {
      "isOwner()": {
        "details": "Returns true if the caller is the current owner."
      },
      "owner()": {
        "details": "Returns the address of the current owner."
      },
      "renounceOwnership()": {
        "details": "Leaves the contract without owner. It will not be possible to call `onlyOwner` functions anymore. Can only be called by the current owner.     * NOTE: Renouncing ownership will leave the contract without an owner, thereby removing any functionality that is only available to the owner."
      },
      "transferOwnership(address)": {
        "details": "Transfers ownership of the contract to a new account (`newOwner`). Can only be called by the current owner."
      }
    }
  },
  "userdoc": {
    "methods": {}
  }
}