{
  "contractName": "Forwarder",
  "abi": [
    {
      "constant": true,
      "inputs": [],
      "name": "ETHER_TOKEN",
      "outputs": [
        {
          "internalType": "address payable",
          "name": "",
          "type": "address"
        }
      ],
      "payable": false,
      "stateMutability": "view",
      "type": "function"
    },
    {
      "constant": true,
      "inputs": [],
      "name": "ZERO_EX_EXCHANGE",
      "outputs": [
        {
          "internalType": "address",
          "name": "",
          "type": "address"
        }
      ],
      "payable": false,
      "stateMutability": "view",
      "type": "function"
    },
    {
      "constant": true,
      "inputs": [],
      "name": "ZERO_EX_TOKEN_PROXY",
      "outputs": [
        {
          "internalType": "address",
          "name": "",
          "type": "address"
        }
      ],
      "payable": false,
      "stateMutability": "view",
      "type": "function"
    },
    {
      "constant": true,
      "inputs": [],
      "name": "EIP712_DOMAIN_HASH",
      "outputs": [
        {
          "internalType": "bytes32",
          "name": "",
          "type": "bytes32"
        }
      ],
      "payable": false,
      "stateMutability": "view",
      "type": "function"
    },
    {
      "constant": true,
      "inputs": [],
      "name": "CARDS_TOKEN",
      "outputs": [
        {
          "internalType": "contract IERC721",
          "name": "",
          "type": "address"
        }
      ],
      "payable": false,
      "stateMutability": "view",
      "type": "function"
    },
    {
      "inputs": [
        {
          "internalType": "address",
          "name": "zeroExExchange",
          "type": "address"
        },
        {
          "internalType": "address",
          "name": "zeroExProxy",
          "type": "address"
        },
        {
          "internalType": "address payable",
          "name": "etherToken",
          "type": "address"
        },
        {
          "internalType": "address",
          "name": "cardsToken",
          "type": "address"
        }
      ],
      "payable": false,
      "stateMutability": "nonpayable",
      "type": "constructor"
    },
    {
      "constant": false,
      "inputs": [
        {
          "components": [
            {
              "internalType": "address",
              "name": "makerAddress",
              "type": "address"
            },
            {
              "internalType": "address",
              "name": "takerAddress",
              "type": "address"
            },
            {
              "internalType": "address",
              "name": "feeRecipientAddress",
              "type": "address"
            },
            {
              "internalType": "address",
              "name": "senderAddress",
              "type": "address"
            },
            {
              "internalType": "uint256",
              "name": "makerAssetAmount",
              "type": "uint256"
            },
            {
              "internalType": "uint256",
              "name": "takerAssetAmount",
              "type": "uint256"
            },
            {
              "internalType": "uint256",
              "name": "makerFee",
              "type": "uint256"
            },
            {
              "internalType": "uint256",
              "name": "takerFee",
              "type": "uint256"
            },
            {
              "internalType": "uint256",
              "name": "expirationTimeSeconds",
              "type": "uint256"
            },
            {
              "internalType": "uint256",
              "name": "salt",
              "type": "uint256"
            },
            {
              "internalType": "bytes",
              "name": "makerAssetData",
              "type": "bytes"
            },
            {
              "internalType": "bytes",
              "name": "takerAssetData",
              "type": "bytes"
            }
          ],
          "internalType": "struct LibOrder.Order[]",
          "name": "orders",
          "type": "tuple[]"
        },
        {
          "internalType": "uint256[]",
          "name": "takerAssetFillAmounts",
          "type": "uint256[]"
        },
        {
          "internalType": "bytes[]",
          "name": "signatures",
          "type": "bytes[]"
        },
        {
          "internalType": "uint256[]",
          "name": "tokenIDs",
          "type": "uint256[]"
        }
      ],
      "name": "fillOrders",
      "outputs": [],
      "payable": true,
      "stateMutability": "payable",
      "type": "function"
    }
  ],
  "bytecode": "0x60806040523480156200001157600080fd5b506040516200112038038062001120833981016040819052620000349162000195565b604051602001620000459062000391565b60408051601f1981840301815282825280516020918201208383018352600b84527f30782050726f746f636f6c0000000000000000000000000000000000000000009382019390935281518083018352600181527f32000000000000000000000000000000000000000000000000000000000000009082015290516200011392917ff0f24618f4c4be1e62e026fb039a20ef96f4495294817d1027ffaa6d1f70e61e917fad7c5bef027816a800da1736444fb58a807ef4c9603b7848673f7e3a68eb14a59130910162000341565b60408051601f198184030181529190528051602090910120600055600180546001600160a01b039586166001600160a01b03199182161790915560028054948616948216949094179093556003805492851692841692909217909155600480549190931691161790556200040d565b80516200018f81620003f3565b92915050565b60008060008060808587031215620001ac57600080fd5b6000620001ba878762000182565b9450506020620001cd8782880162000182565b9350506040620001e08782880162000182565b9250506060620001f38782880162000182565b91505092959194509250565b620002146200020e82620003e4565b620003e4565b82525050565b600062000229600c83620003d2565b7f737472696e67206e616d652c00000000000000000000000000000000000000008152600c0192915050565b600062000264601983620003d2565b7f6164647265737320766572696679696e67436f6e747261637400000000000000815260190192915050565b60006200029f600183620003d2565b7f2900000000000000000000000000000000000000000000000000000000000000815260010192915050565b6000620002da600f83620003d2565b7f737472696e672076657273696f6e2c00000000000000000000000000000000008152600f0192915050565b600062000315600d83620003d2565b7f454950373132446f6d61696e28000000000000000000000000000000000000008152600d0192915050565b60006200034f8287620001ff565b602082019150620003618286620001ff565b602082019150620003738285620001ff565b602082019150620003858284620001ff565b50602001949350505050565b60006200039e8262000306565b9150620003ab826200021a565b9150620003b882620002cb565b9150620003c58262000255565b91506200018f8262000290565b919050565b60006200018f82620003e7565b90565b6001600160a01b031690565b620003fe81620003d7565b81146200040a57600080fd5b50565b610d03806200041d6000396000f3fe6080604052600436106100555760003560e01c806329b8ef161461005a5780635da270fc14610085578063d1f37d591461009a578063e306f779146100af578063e7f6bc53146100d1578063fcbad1f5146100f3575b600080fd5b34801561006657600080fd5b5061006f610108565b60405161007c9190610af9565b60405180910390f35b34801561009157600080fd5b5061006f610117565b3480156100a657600080fd5b5061006f610126565b3480156100bb57600080fd5b506100c4610135565b60405161007c9190610b83565b3480156100dd57600080fd5b506100e661013b565b60405161007c9190610b91565b6101066101013660046106a5565b61014a565b005b6003546001600160a01b031681565b6001546001600160a01b031681565b6002546001600160a01b031681565b60005481565b6004546001600160a01b031681565b60035460025460405163095ea7b360e01b81526001600160a01b0392831692839263095ea7b39261018392909116903490600401610b2f565b602060405180830381600087803b15801561019d57600080fd5b505af11580156101b1573d6000803e3d6000fd5b505050506040513d601f19601f820116820180604052506101d59190810190610765565b5060015460405163050dde1960e41b81526001600160a01b039091169081906350dde1909061020c90899089908990600401610b4a565b608060405180830381600087803b15801561022657600080fd5b505af115801561023a573d6000803e3d6000fd5b505050506040513d601f19601f8201168201806040525061025e919081019061078b565b5060005b835181101561032a5760045484516001600160a01b03909116903090339087908590811061028c57fe5b60200260200101516040516020016102a693929190610b07565b60408051601f19818403018152908290526102c391602001610ae2565b60408051601f19818403018152908290526102dd91610ad6565b6000604051808303816000865af19150503d806000811461031a576040519150601f19603f3d011682016040523d82523d6000602084013e61031f565b606091505b505050600101610262565b50505050505050565b803561033e81610c97565b92915050565b600082601f83011261035557600080fd5b813561036861036382610bc6565b610b9f565b81815260209384019390925082018360005b838110156103a657813586016103908882610488565b845250602092830192919091019060010161037a565b5050505092915050565b600082601f8301126103c157600080fd5b81356103cf61036382610bc6565b81815260209384019390925082018360005b838110156103a657813586016103f78882610546565b84525060209283019291909101906001016103e1565b600082601f83011261041e57600080fd5b813561042c61036382610bc6565b9150818183526020840193506020810190508385602084028201111561045157600080fd5b60005b838110156103a65781610467888261068f565b8452506020928301929190910190600101610454565b805161033e81610cae565b600082601f83011261049957600080fd5b81356104a761036382610be7565b915080825260208301602083018583830111156104c357600080fd5b6104ce838284610c51565b50505092915050565b6000608082840312156104e957600080fd5b6104f36080610b9f565b90506000610501848461069a565b82525060206105128484830161069a565b60208301525060406105268482850161069a565b604083015250606061053a8482850161069a565b60608301525092915050565b6000610180828403121561055957600080fd5b610564610180610b9f565b905060006105728484610333565b825250602061058384848301610333565b602083015250604061059784828501610333565b60408301525060606105ab84828501610333565b60608301525060806105bf8482850161068f565b60808301525060a06105d38482850161068f565b60a08301525060c06105e78482850161068f565b60c08301525060e06105fb8482850161068f565b60e0830152506101006106108482850161068f565b610100830152506101206106268482850161068f565b6101208301525061014082013567ffffffffffffffff81111561064857600080fd5b61065484828501610488565b6101408301525061016082013567ffffffffffffffff81111561067657600080fd5b61068284828501610488565b6101608301525092915050565b803561033e81610cb7565b805161033e81610cb7565b600080600080608085870312156106bb57600080fd5b843567ffffffffffffffff8111156106d257600080fd5b6106de878288016103b0565b945050602085013567ffffffffffffffff8111156106fb57600080fd5b6107078782880161040d565b935050604085013567ffffffffffffffff81111561072457600080fd5b61073087828801610344565b925050606085013567ffffffffffffffff81111561074d57600080fd5b6107598782880161040d565b91505092959194509250565b60006020828403121561077757600080fd5b6000610783848461047d565b949350505050565b60006080828403121561079d57600080fd5b600061078384846104d7565b60006107b5838361094b565b9392505050565b60006107b583836109d3565b60006107d48383610913565b505060200190565b6107e581610c27565b82525050565b60006107f682610c15565b6108008185610c19565b93508360208202850161081285610c0f565b8060005b8581101561084c578484038952815161082f85826107a9565b945061083a83610c0f565b60209a909a0199925050600101610816565b5091979650505050505050565b600061086482610c15565b61086e8185610c19565b93508360208202850161088085610c0f565b8060005b8581101561084c578484038952815161089d85826107bc565b94506108a883610c0f565b60209a909a0199925050600101610884565b60006108c582610c15565b6108cf8185610c19565b93506108da83610c0f565b8060005b838110156109085781516108f288826107c8565b97506108fd83610c0f565b9250506001016108de565b509495945050505050565b6107e581610c37565b600061092782610c15565b6109318185610c22565b9350610941818560208601610c5d565b9290920192915050565b600061095682610c15565b6109608185610c19565b9350610970818560208601610c5d565b61097981610c8d565b9093019392505050565b6107e581610c46565b6000610999602583610c22565b7f7472616e7366657246726f6d28616464726573732c616464726573732c75696e815264743235362960d81b602082015260250192915050565b80516000906101808401906109e885826107dc565b5060208301516109fb60208601826107dc565b506040830151610a0e60408601826107dc565b506060830151610a2160608601826107dc565b506080830151610a346080860182610913565b5060a0830151610a4760a0860182610913565b5060c0830151610a5a60c0860182610913565b5060e0830151610a6d60e0860182610913565b50610100830151610a82610100860182610913565b50610120830151610a97610120860182610913565b50610140830151848203610140860152610ab1828261094b565b915050610160830151848203610160860152610acd828261094b565b95945050505050565b60006107b5828461091c565b6000610aed8261098c565b91506107b5828461091c565b6020810161033e82846107dc565b60608101610b1582866107dc565b610b2260208301856107dc565b6107836040830184610913565b60408101610b3d82856107dc565b6107b56020830184610913565b60608082528101610b5b8186610859565b90508181036020830152610b6f81856108ba565b90508181036040830152610acd81846107eb565b6020810161033e8284610913565b6020810161033e8284610983565b60405181810167ffffffffffffffff81118282101715610bbe57600080fd5b604052919050565b600067ffffffffffffffff821115610bdd57600080fd5b5060209081020190565b600067ffffffffffffffff821115610bfe57600080fd5b506020601f91909101601f19160190565b60200190565b5190565b90815260200190565b919050565b600061033e82610c3a565b151590565b90565b6001600160a01b031690565b600061033e82610c27565b82818337506000910152565b60005b83811015610c78578181015183820152602001610c60565b83811115610c87576000848401525b50505050565b601f01601f191690565b610ca081610c27565b8114610cab57600080fd5b50565b610ca081610c32565b610ca081610c3756fea365627a7a72315820d056f7efbeac77889f80ade38c776c1b75aa366aba9dff4e83f83df49492fc676c6578706572696d656e74616cf564736f6c634300050b0040",
  "source": "pragma solidity 0.5.11;\n\npragma experimental ABIEncoderV2;\n\nimport \"@0x/contracts-exchange-libs/contracts/src/LibOrder.sol\";\nimport \"@openzeppelin/contracts/token/ERC20/IERC20.sol\";\nimport \"@openzeppelin/contracts/token/ERC721/IERC721.sol\";\n\nimport \"./IExchange.sol\";\nimport \"./IEtherToken.sol\";\n\ncontract Forwarder is LibOrder {\n\n    address public ZERO_EX_EXCHANGE;\n\n    address public ZERO_EX_TOKEN_PROXY;\n\n    address payable public ETHER_TOKEN;\n\n    IERC721 public CARDS_TOKEN;\n\n    constructor(\n        address zeroExExchange,\n        address zeroExProxy,\n        address payable etherToken,\n        address cardsToken\n    )\n        public\n    {\n        ZERO_EX_EXCHANGE = zeroExExchange;\n        ZERO_EX_TOKEN_PROXY = zeroExProxy;\n        ETHER_TOKEN = etherToken;\n        CARDS_TOKEN = IERC721(cardsToken);\n    }\n\n    function fillOrders(\n        LibOrder.Order[] memory orders,\n        uint256[] memory takerAssetFillAmounts,\n        bytes[] memory signatures,\n        uint[] memory tokenIDs\n    )\n        public\n        payable\n    {\n        IEtherToken token = IEtherToken(ETHER_TOKEN);\n\n        // address payable payableEtherToken = address(uint160(ETHER_TOKEN));\n        token.deposit.value(msg.value);\n\n        token.approve(ZERO_EX_TOKEN_PROXY, msg.value);\n\n        IExchange v2Exchange = IExchange(ZERO_EX_EXCHANGE);\n\n        v2Exchange.batchFillOrdersNoThrow(\n            orders,\n            takerAssetFillAmounts,\n            signatures\n        );\n\n        for (uint i = 0; i < tokenIDs.length; i++) {\n            address(CARDS_TOKEN).call(\n                abi.encodePacked(\n                    \"transferFrom(address,address,uint256)\",\n                    abi.encode(address(this), msg.sender, tokenIDs[i])\n                )\n            );\n        }\n\n        // uint remainingBalance = token.balanceOf(address(this));\n        // token.withdraw(remainingBalance);\n\n        // address(msg.sender).transfer(remainingBalance);\n        // require(address(this).balance == 0);\n\n    }\n\n}",
  "sourcePath": "/Users/kerman/immutable/gods-unchained-contracts/packages/contracts/contracts/cards/Forwarder.sol",
  "compiler": {
    "name": "solc",
    "version": "0.5.11+commit.c082d0b4.Emscripten.clang"
  },
  "schemaVersion": "3.0.16",
  "updatedAt": "2019-11-08T05:02:33.387Z",
  "devdoc": {
    "methods": {}
  },
  "userdoc": {
    "methods": {}
  }
}